:100000000C9466000C9485000C9485000C9485007B
:100010000C9485000C9485000C9485000C9485004C
:100020000C9485000C9485000C9485000C9485003C
:100030000C9485000C9425010C9485000C9485008B
:100040000C9485000C9485000C9485000C9485001C
:100050000C9485000C9485000C9485000C9485000C
:100060000C9485000C9485000C9485000C948500FC
:100070000C9485000C9485000C9485000C948500EC
:100080000C9485000C9485000C9485009101C901A5
:10009000E90117021E024202540266026D02740256
:1000A0008F02A102A802BC02C302D702F20205031A
:1000B00008031703BB032703300339035B037D03E6
:1000C000BB038F03BB039F03BB03B90311241FBEF4
:1000D000CFEFD0E4DEBFCDBF11E0A0E0B1E0ECE4B3
:1000E000F4E100E00BBF02C007900D92A43CB10701
:1000F000D9F711E0A4ECB1E001C01D92AE3EB1070A
:10010000E1F70E949F090C94240A0C94000040E03F
:1001100050E00CC000002F5F3F4F02C020E030E0F5
:10012000273063E03607B4F34F5F5F4F4817590736
:10013000ACF308955E9888B95F9A00005F9882E0FA
:1001400090E00E948700089581E090E00E949A006C
:100150000895813120F481580E949A0008958155B4
:100160000E949A00089584E690E00E94870088E348
:1001700090E00E949A0086E090E00E949A008FE052
:1001800090E00E949A0081E090E00E949A008AE04C
:1001900090E00E94870008955E9A88B95F9A0000F7
:1001A0005F9881E090E00E9487000895EF92FF92AF
:1001B0000F931F93CF93DF93182FEB010E94A4009E
:1001C0000FC001E0010F812F90E00E94A9007E0185
:1001D0008FEFE81AF80A88810E94CC00102FE701FF
:1001E00088818111EECFDF91CF911F910F91FF9008
:1001F000EF9008958BE0809381008DE790E09093DD
:1002000089008093880082E080936F0010928500BF
:10021000109284008091260190912701A0912801DD
:10022000B09129018093DC019093DD01A093DE0160
:10023000B093DF018FB780688FBF0895109281005F
:10024000089581E08093E00108951F920F920FB608
:100250000F9211240BB60F922F933F934F935F93FE
:100260006F937F938F939F93AF93BF93EF93FF937E
:100270008091DC019091DD01A091DE01B091DF0160
:100280000197A109B1098093DC019093DD01A0934E
:10029000DE01B093DF01892B8A2B8B2B91F40E9416
:1002A00021018091260190912701A0912801B09110
:1002B00029018093DC019093DD01A093DE01B093CE
:1002C000DF01FF91EF91BF91AF919F918F917F914E
:1002D0006F915F914F913F912F910F900BBE0F90B7
:1002E0000FBE0F901F901895609326017093270101
:1002F00080932801909329016093DC017093DD01C4
:100300008093DE019093DF010895E091EC01F0917C
:10031000ED01E031F10508F059C1EA5BFF4F0C94A3
:10032000F2098091E3018F7179F41092D701109254
:10033000D8011092D6011092D5011092D4011092DA
:10034000ED011092EC0142C1813059F48093D80143
:100350001092D70181E090E09093ED018093EC0141
:1003600035C1823061F481E08093D7011092D801C9
:1003700081E090E09093ED018093EC0127C18430FF
:1003800009F024C18AE090E09093ED018093EC01A4
:100390001DC18091E3018F71A9F0813029F4809310
:1003A000D8011092D70107C0823029F481E08093F0
:1003B000D7011092D80181E090E09093ED018093F5
:1003C000EC0104C182E090E09093ED018093EC0198
:1003D000FDC08091E3018F7139F482E090E0909349
:1003E000ED018093EC01F2C0813061F482E08093F2
:1003F000D60183E090E09093ED018093EC011092A0
:10040000DA01E4C0823061F481E08093D60183E0B8
:1004100090E09093ED018093EC011092DA01D6C048
:1004200082E090E09093ED018093EC01CFC084E0F6
:1004300090E09093ED018093EC01C8C08091D301CE
:1004400081110BC09091D201911107C084E090E01E
:100450009093ED018093EC01B9C0882339F085E0D9
:1004600090E09093ED018093EC01B0C08091D201B7
:10047000882309F4ABC086E090E09093ED0180936F
:10048000EC01A4C08091D501843039F487E090E07C
:100490009093ED018093EC0199C084E090E09093FB
:1004A000ED018093EC0192C08091D401843039F445
:1004B00088E090E09093ED018093EC0187C084E0A8
:1004C00090E09093ED018093EC0180C089E090E092
:1004D0009093ED018093EC0179C089E090E09093D6
:1004E000ED018093EC0172C01092D7011092D801F7
:1004F0008091D0019091D1018035934C49F41092B4
:10050000D1011092D0011092ED011092EC015EC069
:1005100089E090E09093ED018093EC0157C08091C9
:10052000E3018F7139F08AE090E09093ED018093C0
:10053000EC014CC08BE090E09093ED018093EC01D6
:1005400045C08CE090E09093ED018093EC013EC0BB
:100550008091E3018F7139F48CE090E09093ED018C
:100560008093EC0133C0843089F58DE090E0909366
:10057000ED018093EC012AC08EE090E09093ED01B4
:100580008093EC0123C08091E3018F7139F48EE0F8
:1005900090E09093ED018093EC0118C08430B1F4A9
:1005A0008FE090E09093ED018093EC010FC080917B
:1005B000E3018F7139F08FE090E09093ED0180932B
:1005C000EC0104C01092ED011092EC01E091EC01FD
:1005D000F091ED01E031F10508F0CDC0EA5AFF4F8E
:1005E0000C94F2091092DB011092D9018091DA018A
:1005F0008111C1C00E94A4006AE271E081E00E9402
:10060000D60081E08093DA0108951092DA0108950E
:100610008091DA018111AFC00E94A4006AE371E009
:1006200081E00E94D60081E08093DA01089581E0A4
:100630008093D9018091DA0181119DC068E571E054
:1006400081E00E94D60081E08093DA01089584E180
:100650000E94A9008091D501805D0E94CC00089580
:100660008FE10E94A9008091D401805D0E94CC009E
:1006700008951092D7011092D8011092D90163E722
:1006800071E081E00E94D60080E090E00E94FB09CA
:10069000BC016F5F7F4F80E090E00E94010A83E021
:1006A00090E00E94FB09BC016F5F7F4F83E090E008
:1006B0000E94010A08951092D7011092D801109259
:1006C000D90160E871E081E00E94D60080E090E00E
:1006D0000E94FB09BC016F5F7F4F80E090E00E94A9
:1006E000010A85E090E00E94FB09BC016F5F7F4F2B
:1006F00085E090E00E94010A08951092D7011092BF
:10070000D8011092D9018091D0019091D101019628
:100710009093D1018093D0011092DA0108956DE891
:1007200071E081E00E94D6008BE10E94A90080E088
:1007300090E00E94FB09805D0E94CC00089569EA68
:1007400071E081E00E94D60086E00E94A90083E06B
:1007500090E00E94FB09805D0E94CC008FE00E9427
:10076000A90085E090E00E94FB09805D0E94CC001A
:1007700008951092DA0108958091E4019091E501C5
:1007800082309105A1F128F4009751F00197D9F03A
:1007900063C083309105E9F1049709F44CC05CC053
:1007A0008091D901811105C01092E5011092E401F8
:1007B00053C0882309F450C082E090E09093E50193
:1007C0008093E40149C08091D901811107C081E083
:1007D00090E09093E5018093E4013EC08823E1F12D
:1007E00082E090E09093E5018093E40135C0809130
:1007F000D901811105C01092E5011092E4012CC0CD
:10080000882351F183E090E09093E5018093E40127
:1008100023C08091D901811105C01092E501109289
:10082000E4011AC08823C1F084E090E09093E501D0
:100830008093E40111C08091D901811105C010920B
:10084000E5011092E40108C0882331F082E090E0D5
:100850009093E5018093E4018091E4019091E5019A
:100860008230910509F440C028F4009759F00197AF
:1008700011F108958330910509F441C0049709F4FA
:1008800049C008958091CE019091CF010196909337
:10089000CF018093CE01E0910301F0E0E05EFE4FD6
:1008A000808185B98EE782B98EEF80931E018FE734
:1008B0008093160108958091CE019091CF01019609
:1008C0009093CF018093CE01E0910301F0E0E05ED0
:1008D000FE4F808185B98EE782B98EEF80931E012D
:1008E0008FE7809316010895E0911F01F0E0E05E2C
:1008F000FE4F808185B980911E0182B90895E091F3
:100900001701F0E0E85EFE4F808185B98091160105
:1009100082B90895E0910501F0E0E25FFE4F808129
:1009200085B9E0910401F0E0EA5FFE4F808182B971
:1009300008958091EA019091EB018230910509F4CC
:100940004FC028F4009759F00197E1F06BC0833055
:10095000910509F44CC0049709F450C063C080911C
:10096000D901811105C01092EB011092EA015AC021
:10097000882309F457C081E090E09093EB018093C5
:10098000EA0150C08091D901882329F18091E301C7
:10099000982F917080FD02C081FF04C0992349F017
:1009A00081FF07C081E090E09093EB018093EA0122
:1009B00039C0992339F082E090E09093EB01809365
:1009C000EA0130C081FF2EC083E090E09093EB01FC
:1009D0008093EA0127C01092EB011092EA0122C035
:1009E00084E090E09093EB018093EA011BC084E0E7
:1009F00090E09093EB018093EA0114C08091CC01C8
:100A00009091CD01843C994039F481E090E090933D
:100A1000EB018093EA0106C084E090E09093EB0143
:100A20008093EA018091EA019091EB018230910577
:100A3000B1F028F4009749F0019761F008958330F0
:100A40009105A9F00497D9F008951092CD01109264
:100A5000CC0108951092CD011092CC01089580919F
:100A60001F018530A8F48F5F80931F010895809146
:100A70001F01882369F0815080931F0108958091A0
:100A8000CC019091CD0101969093CD018093CC0142
:100A900008958091E6019091E7018230910509F473
:100AA00067C028F4009759F0019761F183C0833043
:100AB000910509F464C0049709F468C07BC0809173
:100AC000D901811109C09091D701911105C01092EF
:100AD000E7011092E6016EC0882379F08091D7017A
:100AE000882359F08091D801811107C081E090E0FE
:100AF0009093E7018093E6015DC01092E7011092A8
:100B0000E60158C08091D901811105C01092E7011A
:100B10001092E6014FC0882309F44CC08091D701A0
:100B2000882309F447C08091E301982F947082FDD7
:100B300002C083FF04C0992349F083FF07C081E00E
:100B400090E09093E7018093E60134C0992339F057
:100B500082E090E09093E7018093E6012BC083FF51
:100B600029C083E090E09093E7018093E60122C0E2
:100B700084E090E09093E7018093E6011BC084E05D
:100B800090E09093E7018093E60114C08091CA0140
:100B90009091CB01843C994039F481E090E09093AE
:100BA000E7018093E60106C084E090E09093E701BE
:100BB0008093E6018091E6019091E70182309105F2
:100BC000B1F028F4009749F0019761F0089583305F
:100BD0009105A9F00497D9F008951092CB011092D5
:100BE000CA0108951092CB011092CA010895809114
:100BF00017018530A8F48F5F8093170108958091C5
:100C00001701882369F0815080931701089580911E
:100C1000CA019091CB0101969093CB018093CA01B8
:100C200008958091E1019091E2018230910509F4EB
:100C30005FC028F4009759F0019761F17BC08330C1
:100C4000910509F45CC0049709F460C073C08091F9
:100C5000D901811109C09091D801911105C010925C
:100C6000E2011092E10166C0882379F08091D801F9
:100C7000882359F08091D701811107C081E090E06D
:100C80009093E2018093E10155C01092E20110922D
:100C9000E10150C08091D901811105C01092E70196
:100CA0001092E60147C0882309F444C08091D8011E
:100CB000882309F43FC0909105018091170198178E
:100CC00038F483E090E09093E2018093E10132C038
:100CD000891738F482E090E09093E2018093E1017B
:100CE00029C081E090E09093E2018093E10122C06D
:100CF00084E090E09093E2018093E1011BC084E0E6
:100D000090E09093E2018093E10114C08091C801CA
:100D10009091C901883B9B4039F481E090E0909329
:100D2000E2018093E10106C084E090E09093E2014B
:100D30008093E1018091E1019091E201823091057F
:100D4000B1F028F4009749F0019761F008958330DD
:100D50009105A9F00497D9F008951092C901109255
:100D6000C80108951092C9011092C8010895809198
:100D700017018530A8F48F5F809317010895809143
:100D80001701882369F0815080931701089580919D
:100D9000C8019091C90101969093C9018093C8013F
:100DA00008958091E8019091E9018230910589F1DF
:100DB00028F4009759F00197E1F0A5C08330910520
:100DC00009F445C0049709F467C09DC08091D9011A
:100DD000811105C01092E9011092E80194C08823A6
:100DE00009F491C081E090E09093E9018093E801DB
:100DF0008AC08091D901811105C01092E901109239
:100E0000E80181C082E090E09093E9018093E801DD
:100E10007AC08091C4019091C501803127E2920788
:100E200039F082E090E09093E9018093E8016BC093
:100E30008031974209F067C01092C5011092C40139
:100E400083E090E09093E9018093E8015CC0109208
:100E5000C5011092C4018091040181110AC081E092
:100E60008093D20181E090E09093E9018093E801C2
:100E70004AC0873051F481E08093D30181E090E053
:100E80009093E9018093E8013EC084E090E0909364
:100E9000E9018093E80137C04091D60188EE93E0E4
:100EA000489F9001499F300D11248091C601909177
:100EB000C7012817390739F084E090E09093E901E1
:100EC0008093E80120C01092C7011092C601809162
:100ED000D301882339F081E090E09093E901809379
:100EE000E80111C08091D201882339F081E090E0BF
:100EF0009093E9018093E80106C083E090E090932D
:100F0000E9018093E8018091E8019091E901823044
:100F1000910509F462C028F4009759F0019771F027
:100F200008958330910509F466C0049709F4FDC162
:100F300008951092D3011092D20108958091D301A7
:100F4000811118C09091D201911114C08FEF80933C
:100F500001011092000184E0809305018093040157
:100F600083E080931F01809317011092D3011092A8
:100F7000D20108958823B1F081E08093010110929D
:100F8000000184E08093050182E08093040183E006
:100F900080931F01809317018091D5018F5F80930B
:100FA000D50108958091D201882309F4C7C18FEF3C
:100FB000809301011092000184E08093050185E097
:100FC0008093040183E080931F0180931701809137
:100FD000D4018F5F8093D40108951092D3011092B1
:100FE000D2018091C4019091C50101969093C501F1
:100FF0008093C40108951092C5011092C4012091FC
:10100000000180910501820F809305013091040158
:1010100090910101930F909304013FEF380F363008
:1010200018F0219520930001923008F0BFC0811183
:101030000AC080911F01811181C181E0809301016B
:10104000809300010895813099F480911F018111EE
:1010500006C081E080930101109200010895813063
:1010600009F06CC1809301018FEF80930001089516
:101070008230D9F480911F01811106C081E08093F4
:101080000101809300010895813029F480930101CA
:10109000109200010895823009F050C181E08093E0
:1010A00001018FEF8093000108958330D9F480917E
:1010B0001F01813029F4809301018093000108957C
:1010C000823031F481E08093010110920001089593
:1010D000833009F033C181E0809301018FEF809369
:1010E000000108958430E1F480911F01823031F4D1
:1010F00081E080930101809300010895833031F4F1
:1011000081E080930101109200010895843009F07C
:1011100015C181E0809301018FEF80930001089554
:101120008530E1F480911F01833031F481E08093B8
:101130000101809300010895843031F481E08093AF
:101140000101109200010895853009F0F7C081E097
:10115000809301018FEF8093000108958630A1F400
:1011600080911F01843031F481E08093010110925D
:1011700000010895853009F0E1C081E0809301010C
:101180008FEF809300010895873061F480911F01F3
:10119000853009F0D3C081E0809301018FEF809307
:1011A0000001089581E08093D2010895963008F4FB
:1011B000C5C081110AC0809117018111BFC08FEF96
:1011C00080930101809300010895813099F480910A
:1011D0001701811106C08FEF809301011092000169
:1011E0000895813009F0AAC08FEF809301018093A8
:1011F000000108958230E1F480911701811107C048
:101200008FEF8093010181E0809300010895813088
:1012100031F48FEF80930101109200010895823024
:1012200009F08CC08FEF8093010180930001089535
:101230008330E1F480911701813039F48FEF80938E
:10124000010181E0809300010895823031F48FEF35
:1012500080930101109200010895833009F06EC05F
:101260008FEF809301018093000108958430E1F4B1
:1012700080911701823039F48FEF8093010181E072
:10128000809300010895833031F48FEF8093010142
:10129000109200010895843009F050C08FEF8093C0
:1012A00001018093000108958530D9F480911701E0
:1012B000833039F48FEF8093010181E08093000146
:1012C0000895843031F48FEF809301011092000172
:1012D0000895853099F58FEF809301018093000187
:1012E0000895863091F480911701843031F48FEFA6
:1012F000809301011092000108958530F9F48FEF79
:1013000080930101809300010895873051F480910A
:101310001701853099F48FEF8093010180930001CC
:10132000089581E08093D30108958091C601909142
:10133000C70101969093C7018093C60108958FEF6E
:1013400081B912B884B915B887B918B880EE8AB9CE
:101350008FE18BB90E94B30061E070E080E090E023
:101360000E9474010E94FA0080E090E00E94FB0954
:101370008F3F2FEF920739F4BC016F5F7F4F80E002
:1013800090E00E94010A85E090E00E94FB098F3FF7
:101390002FEF920739F4BC016F5F7F4F85E090E03B
:1013A0000E94010A83E090E00E94FB098F3F2FEF2B
:1013B000920739F4BC016F5F7F4F83E090E00E9499
:1013C000010A89B180958093E3010E9485010E9402
:1013D000BC030E9499040E9449050E9411060E94C4
:1013E000D106EFCFEE0FFF1F0024001C0BBE0790AD
:1013F000F691E02D0994A8E1B0E042E050E00C94B1
:10140000080A0E94160A272F0C94170ADC01CB0148
:10141000FC01F999FECF06C0F2BDE1BDF89A319604
:1014200000B40D9241505040B8F70895262FF99915
:10143000FECF1FBA92BD81BD20BD0FB6F894FA9AB7
:0C144000F99A0FBE01960895F894FFCFB2
:10144C00FFFF01030303FEFDFBF7EFDFBF7F01028C
:10145C000408102040807F04070E1C3870E0FE0446
:10146C00070E1C3870E00100000042312920505654
:10147C004520423229205056500053706565643A1D
:10148C00203129536C6F7720202020202020202011
:10149C00203229466173740053636F72653A205091
:1014AC0031293020202020202020202020205032C4
:1014BC002930002020202050312057494E53210044
:1014CC002020202050322057494E5321002020202C
:1014DC00205245434F5244533A2020202023205081
:1014EC006C617965643A2030005750313A203020D5
:1014FC0020205750323A2030202020202020204518
:04150C004E44000049
:00000001FF
