:100000000C9456000C9475000C9475000C947500BB
:100010000C9475000C9475000C9475000C9475008C
:100020000C9475000C9475000C9475000C9475007C
:100030000C9475000C9475000C9475000C9475006C
:100040000C9475000C9475000C9475000C9475005C
:100050000C9475000C9475000C9475000C9475004C
:100060000C9475000C9475000C9475000C9475003C
:100070000C9475000C9475000C9475000C9475002C
:100080000C9475000C9475000C947500F600110129
:1000900027012E015101630175017A018A019B013B
:1000A0009E01D301AE01B701C001CA0111241FBED8
:1000B000CFEFD0E4DEBFCDBF11E0A0E0B1E0E2E2DF
:1000C000FEE000E00BBF02C007900D92AE37B10713
:1000D000D9F711E0AEE7B1E001C01D92AC39B1072C
:1000E000E1F70E94EA060C940F070C94000040E030
:1000F00050E00CC000002F5F3F4F02C020E030E016
:10010000273063E03607B4F34F5F5F4F4817590756
:10011000ACF308955E9888B95F9A00005F9882E01A
:1001200090E00E947700089581E090E00E948A00AC
:100130000895813120F481580E948A0008958155E4
:100140000E948A00089584E690E00E94770088E388
:1001500090E00E948A0086E090E00E948A008FE092
:1001600090E00E948A0081E090E00E948A008AE08C
:1001700090E00E94770008955E9A88B95F9A000027
:100180005F9881E090E00E9477000895EF92FF92DF
:100190000F931F93CF93DF93182FEB010E949400CE
:1001A0000FC001E0010F812F90E00E9499007E01B5
:1001B0008FEFE81AF80A88810E94BC00102FE7012F
:1001C00088818111EECFDF91CF911F910F91FF9028
:1001D000EF900895E0919401F0919501E830F105D8
:1001E00008F08CC0EA5BFF4F0C94060780919301E6
:1001F0008F7159F410928F0110928E0110928D011F
:10020000109295011092940179C0813009F076C066
:1002100080938F0181E090E0909395018093940109
:100220006DC0809193018F7159F0813011F48093EA
:100230008F0181E090E090939501809394015EC0DE
:1002400082E090E0909395018093940157C083E001
:1002500090E0909395018093940150C080918C011F
:1002600081110BC090918B01911107C083E090E048
:10027000909395018093940141C0882339F084E0E4
:1002800090E0909395018093940138C080918B0108
:100290008823A1F185E090E09093950180939401EB
:1002A0002DC080918E01853039F487E090E09093E5
:1002B00095018093940122C083E090E09093950192
:1002C000809394011BC080918D01853039F486E0C4
:1002D00090E0909395018093940110C083E090E0AA
:1002E000909395018093940109C01092950110920A
:1002F000940104C01092950110929401E091940130
:10030000F0919501E830F10508F04DC0E25BFF4F38
:100310000C9406071092900180918801811143C0CE
:100320000E94940065E271E081E00E94C60081E0D5
:1003300080938801089510928801089581E0809348
:1003400090018091880181112EC064E471E081E008
:100350000E94C60081E08093880108958FE10E9489
:10036000990080918E01805D0E94BC00089584E117
:100370000E94990080918D01805D0E94BC000895CB
:1003800010928F011092900163E671E081E00E946B
:10039000C600089510928F011092900160E771E0FD
:1003A00081E00E94C600089580919A0190919B017E
:1003B00082309105A1F128F4009751F00197D9F00E
:1003C00063C083309105E9F1049709F44CC05CC027
:1003D00080919001811105C010929B0110929A01A9
:1003E00053C0882309F450C082E090E090939B01B1
:1003F00080939A0149C080919001811107C081E0EA
:1004000090E090939B0180939A013EC08823E1F194
:1004100082E090E090939B0180939A0135C0809197
:100420009001811105C010929B0110929A012CC07D
:10043000882351F183E090E090939B0180939A018F
:1004400023C080919001811105C010929B011092F0
:100450009A011AC08823C1F084E090E090939B0138
:1004600080939A0111C080919001811105C0109272
:100470009B0110929A0108C0882331F082E090E03D
:1004800090939B0180939A0180919A0190919B0196
:100490008230910509F440C028F4009759F0019783
:1004A00011F108958330910509F441C0049709F4CE
:1004B00049C008958091860190918701019690939B
:1004C000870180938601E0910201F0E0E15EFE4F3A
:1004D000808185B98EE782B98EEF80931D018FE709
:1004E000809315010895809186019091870101966E
:1004F0009093870180938601E0910201F0E0E15E34
:10050000FE4F808185B98EE782B98EEF80931D0101
:100510008FE7809315010895E0911E01F0E0E15E00
:10052000FE4F808185B980911D0182B90895E091C7
:100530001601F0E0E95EFE4F808185B980911501DA
:1005400082B90895E0910401F0E0E35FFE4F8081FD
:1005500085B9E0910301F0E0EB5FFE4F808182B945
:10056000089580919801909199018230910509F444
:100570004FC028F4009759F00197E1F06BC0833029
:10058000910509F44CC0049709F450C063C08091F0
:100590009001811105C010929901109298015AC0E2
:1005A000882309F457C081E090E0909399018093EB
:1005B000980150C080919001882329F18091930186
:1005C000982F917080FD02C081FF04C0992349F0EB
:1005D00081FF07C081E090E090939901809398019A
:1005E00039C0992339F082E090E09093990180938B
:1005F000980130C081FF2EC083E090E09093990174
:100600008093980127C0109299011092980122C0FE
:1006100084E090E090939901809398011BC084E05E
:1006200090E0909399018093980114C08091840187
:1006300090918501843C994039F481E090E0909359
:1006400099018093980106C084E090E0909399010D
:100650008093980180919801909199018230910541
:10066000B1F028F4009749F0019761F008958330C4
:100670009105A9F00497D9F0089510928501109280
:10068000840108951092850110928401089580914B
:100690001E018530A8F48F5F80931E01089580911C
:1006A0001E01882369F0815080931E010895809176
:1006B0008401909185010196909385018093840136
:1006C000089580919101909192018230910509F4F1
:1006D00063C028F4009759F0019741F17FC083303F
:1006E000910509F460C0049709F464C077C0809153
:1006F0009001811109C090918F01911105C0109254
:100700009201109291016AC0882359F080918F0163
:10071000882339F081E090E09093920180939101D9
:100720005DC0109292011092910158C08091900189
:10073000811105C010929201109291014FC088233F
:1007400009F44CC080918F01882309F447C080913F
:100750009301982F947082FD02C083FF04C09923F7
:1007600049F083FF07C081E090E09093920180936D
:10077000910134C0992339F082E090E09093920186
:10078000809391012BC083FF29C083E090E0909378
:1007900092018093910122C084E090E090939201B5
:1007A000809391011BC084E090E09093920180932C
:1007B000910114C08091820190918301843C994001
:1007C00039F481E090E0909392018093910106C00A
:1007D00084E090E090939201809391018091910147
:1007E0009091920182309105B1F028F4009749F080
:1007F000019761F0089583309105A9F00497D9F02D
:10080000089510928301109282010895109283013D
:10081000109282010895809116018530A8F48F5FAF
:1008200080931601089580911601882369F0815004
:100830008093160108958091820190918301019621
:100840009093830180938201089580919601909105
:1008500097018230910589F128F4009759F00197AA
:10086000E1F09CC08330910509F445C0049709F478
:1008700067C094C080919001811105C010929701CA
:10088000109296018BC0882309F488C081E090E023
:10089000909397018093960181C08091900181117E
:1008A00005C0109297011092960178C082E090E006
:1008B000909397018093960171C080917E019091F1
:1008C0007F01803127E2920739F082E090E0909337
:1008D00097018093960162C08031974209F05EC013
:1008E00010927F0110927E0183E090E09093970137
:1008F0008093960153C010927F0110927E018091E7
:10090000030181110AC081E080938B0181E090E0B6
:10091000909397018093960141C0873051F481E014
:1009200080938C0181E090E09093970180939601F1
:1009300035C084E090E090939701809396012EC09B
:100940008091800190918101803A9F4039F084E04C
:1009500090E0909397018093960120C010928101BE
:100960001092800180918C01882339F081E090E021
:10097000909397018093960111C080918B018823F9
:1009800039F081E090E0909397018093960106C042
:1009900083E090E090939701809396018091960177
:1009A000909197018230910509F462C028F4009774
:1009B00059F0019771F008958330910509F466C0EC
:1009C000049709F4FDC1089510928C0110928B01D7
:1009D000089580918C01811118C090918B01911123
:1009E00014C08FEF809301011092000184E0809386
:1009F00004018093030183E080931E01809316011C
:100A000010928C0110928B0108958823B1F081E03F
:100A1000809301011092000184E08093040182E040
:100A20008093030183E080931E01809316018091DF
:100A30008E018F5F80938E01089580918B018823B2
:100A400009F4C7C18FEF809301011092000184E087
:100A50008093040185E08093030183E080931E016D
:100A60008093160180918D018F5F80938D01089591
:100A700010928C0110928B0180917E0190917F01E8
:100A8000019690937F0180937E01089510927F01DB
:100A900010927E012091000180910401820F8093C9
:100AA00004013091030190910101930F9093030190
:100AB0003FEF380F363018F0219520930001923027
:100AC00008F0BFC081110AC080911E01811181C14F
:100AD00081E080930101809300010895813099F4B1
:100AE00080911E01811106C081E080930101109266
:100AF00000010895813009F06CC1809301018FEFEE
:100B00008093000108958230D9F480911E018111F3
:100B100006C081E080930101809300010895813037
:100B200029F480930101109200010895823009F0A8
:100B300050C181E0809301018FEF809300010895FF
:100B40008330D9F480911E01813029F48093010112
:100B5000809300010895823031F481E08093010197
:100B6000109200010895833009F033C181E0809331
:100B700001018FEF8093000108958430E1F48091AA
:100B80001E01823031F481E08093010180930001E5
:100B90000895833031F481E08093010110920001C7
:100BA0000895843009F015C181E0809301018FEF31
:100BB0008093000108958530E1F480911E01833017
:100BC00031F481E080930101809300010895843025
:100BD00031F481E080930101109200010895853085
:100BE00009F0F7C081E0809301018FEF809300014D
:100BF00008958630A1F480911E01843031F481E0A3
:100C000080930101109200010895853009F0E1C040
:100C100081E0809301018FEF809300010895873078
:100C200061F480911E01853009F0D3C081E080938A
:100C300001018FEF80930001089581E080938B0183
:100C40000895963008F4C5C081110AC0809116013C
:100C50008111BFC08FEF809301018093000108953F
:100C6000813099F480911601811106C08FEF809335
:100C70000101109200010895813009F0AAC08FEFA0
:100C8000809301018093000108958230E1F4809106
:100C90001601811107C08FEF8093010181E08093DD
:100CA00000010895813031F48FEF8093010110929B
:100CB00000010895823009F08CC08FEF809301010C
:100CC0008093000108958330E1F480911601813012
:100CD00039F48FEF8093010181E080930001089542
:100CE000823031F48FEF809301011092000108955A
:100CF000833009F06EC08FEF809301018093000173
:100D000008958430E1F480911601823039F48FEF38
:100D10008093010181E0809300010895833031F4D4
:100D20008FEF80930101109200010895843009F043
:100D300050C08FEF809301018093000108958530AA
:100D4000D9F480911601833039F48FEF809301013B
:100D500081E0809300010895843031F48FEF809317
:100D60000101109200010895853099F58FEF80936D
:100D70000101809300010895863091F4809116015D
:100D8000843031F48FEF80930101109200010895B7
:100D90008530F9F48FEF809301018093000108956D
:100DA000873051F480911601853099F48FEF80934C
:100DB000010180930001089581E080938C010895E2
:100DC000809180019091810101969093810180939F
:100DD000800108958FEF81B912B884B915B887B929
:100DE00018B880EE8AB98FE18BB90E94A30089B14F
:100DF0008095809393010E94EA000E94D4010E9492
:100E0000B1020E9461030E942504F1CFEE0FFF1F83
:100E10000024001C0BBE0790F691E02D0994F89475
:020E2000FFCF02
:100E2200FFFF030303FEFDFBF7EFDFBF7F010204B9
:100E320008102040807F04070E1C3870E0FE040773
:100E42000E1C3870E0526967687420427574746FC2
:100E52006E20746F20537461727420506F6E67201D
:100E62005076500053636F72653A20202020202074
:100E720020202020503129202020202020202050F6
:100E82003229002020202050312057494E53210082
:0E0E92002020202050322057494E53210000CE
:00000001FF
