:100000000C9458000C9477000C9477000C947700B3
:100010000C9477000C9477000C9477000C94770084
:100020000C9477000C9477000C9477000C94770074
:100030000C9477000C9417010C9477000C947700C3
:100040000C9477000C9477000C9477000C94770054
:100050000C9477000C9477000C9477000C94770044
:100060000C9477000C9477000C9477000C94770034
:100070000C9477000C9477000C9477000C94770024
:100080000C9477000C9477000C9477008301B001F6
:10009000D001D701FB010D021F0226022D025302DF
:1000A00066026902E002790282028B02AD02CF028F
:1000B00011241FBECFEFD0E4DEBFCDBF11E0A0E022
:1000C000B1E0E4E8F2E100E00BBF02C007900D925E
:1000D000A438B107D9F711E0A4E8B1E001C01D923E
:1000E000AD3AB107E1F70E94BB080C9440090C94AB
:1000F000000040E050E00CC000002F5F3F4F02C006
:1001000020E030E0273063E03607B4F34F5F5F4F05
:1001100048175907ACF308955E9888B95F9A0000B4
:100120005F9882E090E00E947900089581E090E07D
:100130000E948C000895813120F481580E948C0027
:10014000089581550E948C00089584E690E00E94F5
:10015000790088E390E00E948C0086E090E00E94A5
:100160008C008FE090E00E948C0081E090E00E9483
:100170008C008AE090E00E94790008955E9A88B928
:100180005F9A00005F9881E090E00E9479000895F6
:10019000EF92FF920F931F93CF93DF93182FEB01F2
:1001A0000E9496000FC001E0010F812F90E00E9495
:1001B0009B007E018FEFE81AF80A88810E94BE003A
:1001C000102FE70188818111EECFDF91CF911F9130
:1001D0000F91FF90EF9008958BE0809381008DE761
:1001E00090E0909389008093880082E080936F0074
:1001F0001092850010928400809126019091270131
:10020000A0912801B091290180939B0190939C01BA
:10021000A0939D01B0939E018FB780688FBF089512
:1002200010928100089581E080939F0108951F92AC
:100230000F920FB60F9211240BB60F922F933F938C
:100240004F935F936F937F938F939F93AF93BF93DE
:10025000EF93FF9380919B0190919C01A0919D0150
:10026000B0919E010197A109B10980939B019093E0
:100270009C01A0939D01B0939E01892B8A2B8B2B0F
:1002800091F40E9413018091260190912701A09181
:100290002801B091290180939B0190939C01A09328
:1002A0009D01B0939E01FF91EF91BF91AF919F91FE
:1002B0008F917F916F915F914F913F912F910F900F
:1002C0000BBE0F900FBE0F901F90189560932601E4
:1002D00070932701809328019093290160939B01DB
:1002E00070939C0180939D0190939E010895E091ED
:1002F000AB01F091AC01E930F10508F0C8C0EA5B50
:10030000FF4F0C940E098091A2018F7169F4109235
:1003100097011092960110929501109294011092FB
:10032000AC011092AB01B3C0813059F480939701B6
:100330001092960181E090E09093AC018093AB0124
:10034000A6C0823009F0A3C01092970181E080938B
:10035000960181E090E09093AC018093AB0197C04F
:100360008091A2018F71A9F0813029F480939701C7
:100370001092960107C0823029F41092970181E013
:100380008093960181E090E09093AC018093AB0163
:100390007EC082E090E09093AC018093AB0177C087
:1003A00083E090E09093AC018093AB0170C08091AA
:1003B000930181110BC090919201911107C083E0CC
:1003C00090E09093AC018093AB0161C0882339F039
:1003D00084E090E09093AC018093AB0158C0809191
:1003E0009201882309F453C085E090E09093AC011A
:1003F0008093AB014CC080919501843039F486E044
:1004000090E09093AC018093AB0141C083E090E019
:100410009093AC018093AB013AC0809194018430F9
:1004200039F487E090E09093AC018093AB012FC04A
:1004300083E090E09093AC018093AB0128C088E00A
:1004400090E09093AC018093AB0121C088E090E0F4
:100450009093AC018093AB011AC010929701109257
:10046000960180919001909191018035934C49F4CF
:1004700010929101109290011092AC011092AB0178
:1004800006C088E090E09093AC018093AB01E091CE
:10049000AB01F091AC01E930F10508F091C0E15BEE
:1004A000FF4F0C940E0910929A01109298018091BE
:1004B0009901811185C00E9496006AE271E081E095
:1004C0000E94C80081E080939901089510929901DB
:1004D000089581E08093980180919901811170C005
:1004E0006AE471E081E00E94C80081E08093990194
:1004F000089584E10E949B0080919501805D0E9497
:10050000BE0008958FE10E949B0080919401805D60
:100510000E94BE00089510929701109296011092C9
:10052000980169E671E081E00E94C80080E090E0F7
:100530000E941709BC016F5F7F4F80E090E00E942E
:100540001D0983E090E00E941709BC016F5F7F4F97
:1005500083E090E00E941D09089510929701109287
:1005600096011092980166E771E081E00E94C80050
:1005700080E090E00E941709BC016F5F7F4F80E030
:1005800090E00E941D0985E090E00E941709BC01DF
:100590006F5F7F4F85E090E00E941D0908951092E3
:1005A000970110929601109298018091900190917C
:1005B000910101969093910180939001109299017D
:1005C00008958091A3019091A40182309105A1F139
:1005D00028F4009751F00197D9F063C0833091055A
:1005E000E9F1049709F44CC05CC080919801811135
:1005F00005C01092A4011092A30153C0882309F4EE
:1006000050C082E090E09093A4018093A30149C080
:1006100080919801811107C081E090E09093A4013E
:100620008093A3013EC08823E1F182E090E09093A3
:10063000A4018093A30135C080919801811105C068
:100640001092A4011092A3012CC0882351F183E0E1
:1006500090E09093A4018093A30123C0809198011E
:10066000811105C01092A4011092A3011AC0882321
:10067000C1F084E090E09093A4018093A30111C0A5
:1006800080919801811105C01092A4011092A301DC
:1006900008C0882331F082E090E09093A401809319
:1006A000A3018091A3019091A4018230910509F4E6
:1006B00040C028F4009759F0019711F10895833054
:1006C000910509F441C0049709F449C00895809147
:1006D0008E0190918F01019690938F0180938E01EE
:1006E000E0910301F0E0E05EFE4F808185B98EE786
:1006F00082B98EEF80931E018FE7809316010895D3
:1007000080918E0190918F01019690938F0180933B
:100710008E01E0910301F0E0E05EFE4F808185B93B
:100720008EE782B98EEF80931E018FE780931601CA
:100730000895E0911F01F0E0E05EFE4F808185B9F1
:1007400080911E0182B90895E0911701F0E0E85E02
:10075000FE4F808185B98091160182B90895E0919C
:100760000501F0E0E25FFE4F808185B9E091040170
:10077000F0E0EA5FFE4F808182B908958091A9017F
:100780009091AA018230910509F44FC028F4009796
:1007900059F00197E1F06BC08330910509F44CC02A
:1007A000049709F450C063C080919801811105C07D
:1007B0001092AA011092A9015AC0882309F457C0C7
:1007C00081E090E09093AA018093A90150C08091AC
:1007D0009801882329F18091A201982F917080FDC2
:1007E00002C081FF04C0992349F081FF07C081E066
:1007F00090E09093AA018093A90139C0992339F020
:1008000082E090E09093AA018093A90130C081FF1B
:100810002EC083E090E09093AA018093A90127C0A5
:100820001092AA011092A90122C084E090E0909356
:10083000AA018093A9011BC084E090E09093AA01D3
:100840008093A90114C080918C0190918D01843C0A
:10085000994039F481E090E09093AA018093A90136
:1008600006C084E090E09093AA018093A901809152
:10087000A9019091AA0182309105B1F028F4009766
:1008800049F0019761F0089583309105A9F004972C
:10089000D9F0089510928D0110928C010895109254
:1008A0008D0110928C01089580911F018530A8F46C
:1008B0008F5F80931F01089580911F01882369F045
:1008C000815080931F01089580918C0190918D013A
:1008D000019690938D0180938C0108958091A501DC
:1008E0009091A6018230910509F467C028F4009721
:1008F00059F0019761F183C08330910509F464C018
:10090000049709F468C07BC080919801811109C0E7
:1009100090919601911105C01092A6011092A50127
:100920006EC0882379F080919601882359F08091D8
:100930009701811107C081E090E09093A601809318
:10094000A5015DC01092A6011092A50158C080912A
:100950009801811105C01092A6011092A5014FC007
:10096000882309F44CC080919601882309F447C07C
:100970008091A201982F947082FD02C083FF04C071
:10098000992349F083FF07C081E090E09093A6018E
:100990008093A50134C0992339F082E090E09093D0
:1009A000A6018093A5012BC083FF29C083E090E0BE
:1009B0009093A6018093A50122C084E090E09093DB
:1009C000A6018093A5011BC084E090E09093A6014E
:1009D0008093A50114C080918A0190918B01843C81
:1009E000994039F481E090E09093A6018093A501AD
:1009F00006C084E090E09093A6018093A5018091C9
:100A0000A5019091A60182309105B1F028F40097DC
:100A100049F0019761F0089583309105A9F004979A
:100A2000D9F0089510928B0110928A0108951092C6
:100A30008B0110928A010895809117018530A8F4E6
:100A40008F5F80931701089580911701882369F0C3
:100A5000815080931701089580918A0190918B01B4
:100A6000019690938B0180938A0108958091A00153
:100A70009091A1018230910509F45FC028F400979C
:100A800059F0019761F17BC08330910509F45CC096
:100A9000049709F460C073C080919801811109C066
:100AA00090919701911105C01092A1011092A0019F
:100AB00066C0882379F080919701882359F080914E
:100AC0009601811107C081E090E09093A10180938D
:100AD000A00155C01092A1011092A00150C08091B8
:100AE0009801811105C01092A6011092A50147C07E
:100AF000882309F444C080919701882309F43FC0FA
:100B00009091050180911701981738F483E090E0E7
:100B10009093A1018093A00132C0891738F482E03C
:100B200090E09093A1018093A00129C081E090E022
:100B30009093A1018093A00122C084E090E0909363
:100B4000A1018093A0011BC084E090E09093A101DB
:100B50008093A00114C08091880190918901883B05
:100B60009B4039F481E090E09093A1018093A00133
:100B700006C084E090E09093A1018093A001809151
:100B8000A0019091A10182309105B1F028F4009765
:100B900049F0019761F0089583309105A9F0049719
:100BA000D9F0089510928901109288010895109249
:100BB0008901109288010895809117018530A8F469
:100BC0008F5F80931701089580911701882369F042
:100BD0008150809317010895809188019091890137
:100BE0000196909389018093880108958091A701CF
:100BF0009091A8018230910589F128F4009759F06D
:100C00000197E1F09CC08330910509F445C0049739
:100C100009F467C094C080919801811105C01092B9
:100C2000A8011092A7018BC0882309F488C081E035
:100C300090E09093A8018093A70181C080919801D2
:100C4000811105C01092A8011092A70178C082E01E
:100C500090E09093A8018093A70171C080918401D6
:100C600090918501803127E2920739F082E090E08F
:100C70009093A8018093A70162C08031974209F048
:100C80005EC0109285011092840183E090E0909301
:100C9000A8018093A70153C010928501109284018E
:100CA0008091040181110AC081E08093920181E06A
:100CB00090E09093A8018093A70141C0873051F440
:100CC00081E08093930181E090E09093A80180936C
:100CD000A70135C084E090E09093A8018093A7011C
:100CE0002EC08091860190918701803A9F4039F013
:100CF00084E090E09093A8018093A70120C0109217
:100D000087011092860180919301882339F081E058
:100D100090E09093A8018093A70111C08091920167
:100D2000882339F081E090E09093A8018093A70197
:100D300006C083E090E09093A8018093A701809182
:100D4000A7019091A8018230910509F462C028F4AE
:100D5000009759F0019771F008958330910509F4D7
:100D600066C0049709F4FDC1089510929301109292
:100D70009201089580919301811118C09091920180
:100D8000911114C08FEF809301011092000184E053
:100D9000809305018093040183E080931F01809379
:100DA0001701109293011092920108958823B1F0D7
:100DB00081E0809301011092000184E0809305019D
:100DC00082E08093040183E080931F0180931701E8
:100DD000809195018F5F8093950108958091920194
:100DE000882309F4C7C18FEF80930101109200019D
:100DF00084E08093050185E08093040183E0809383
:100E00001F0180931701809194018F5F809394015B
:100E10000895109293011092920180918401909113
:100E20008501019690938501809384010895109225
:100E30008501109284012091000180910501820FAB
:100E4000809305013091040190910101930F9093DB
:100E500004013FEF380F363018F021952093000140
:100E6000923008F0BFC081110AC080911F0181112A
:100E700081C181E080930101809300010895813058
:100E800099F480911F01811106C081E080930101D6
:100E9000109200010895813009F06CC18093010126
:100EA0008FEF8093000108958230D9F480911F0163
:100EB000811106C081E080930101809300010895B3
:100EC000813029F48093010110920001089582304D
:100ED00009F050C181E0809301018FEF8093000100
:100EE00008958330D9F480911F01813029F48093D3
:100EF0000101809300010895823031F481E08093F4
:100F00000101109200010895833009F033C181E09E
:100F1000809301018FEF8093000108958430E1F404
:100F200080911F01823031F481E080930101809330
:100F300000010895833031F481E080930101109223
:100F400000010895843009F015C181E0809301010A
:100F50008FEF8093000108958530E1F480911F01A7
:100F6000833031F481E08093010180930001089582
:100F7000843031F481E080930101109200010895E2
:100F8000853009F0F7C081E0809301018FEF8093F5
:100F9000000108958630A1F480911F01843031F45E
:100FA00081E080930101109200010895853009F0DD
:100FB000E1C081E0809301018FEF809300010895EB
:100FC000873061F480911F01853009F0D3C081E042
:100FD000809301018FEF80930001089581E0809359
:100FE00092010895963008F4C5C081110AC080911D
:100FF00017018111BFC08FEF809301018093000121
:101000000895813099F480911701811106C08FEF06
:1010100080930101109200010895813009F0AAC067
:101020008FEF809301018093000108958230E1F4F5
:1010300080911701811107C08FEF8093010181E03A
:10104000809300010895813031F48FEF8093010186
:10105000109200010895823009F08CC08FEF8093C8
:1010600001018093000108958330E1F4809117011C
:10107000813039F48FEF8093010181E0809300018A
:101080000895823031F48FEF8093010110920001B6
:101090000895833009F06EC08FEF80930101809333
:1010A000000108958430E1F480911701823039F411
:1010B0008FEF8093010181E08093000108958330D8
:1010C00031F48FEF80930101109200010895843074
:1010D00009F050C08FEF80930101809300010895C3
:1010E0008530D9F480911701833039F48FEF8093E4
:1010F000010181E0809300010895843031F48FEF85
:1011000080930101109200010895853099F58FEFC9
:1011100080930101809300010895863091F48091BD
:101120001701843031F48FEF809301011092000198
:1011300008958530F9F48FEF8093010180930001C9
:101140000895873051F480911701853099F48FEF1D
:101150008093010180930001089581E080939301C1
:10116000089580918601909187010196909387015F
:101170008093860108958FEF81B912B884B915B8AC
:1011800087B918B880EE8AB98FE18BB90E94A500A3
:1011900061E070E080E090E00E9466010E94EC0057
:1011A00080E090E00E9417098F3F2FEF920739F4FB
:1011B000BC016F5F7F4F80E090E00E941D0985E0D9
:1011C00090E00E9417098F3F2FEF920739F4BC017E
:1011D0006F5F7F4F85E090E00E941D0983E090E003
:1011E0000E9417098F3F2FEF920739F4BC016F5F00
:1011F0007F4F83E090E00E941D0989B18095809324
:10120000A2010E9477010E94E1020E94BE030E9497
:101210006E040E9436050E94F605EFCFEE0FFF1F09
:101220000024001C0BBE0790F691E02D0994A8E164
:10123000B0E042E050E00C9424090E943209272FCC
:101240000C943309DC01CB01FC01F999FECF06C0F7
:10125000F2BDE1BDF89A319600B40D924150504074
:10126000B8F70895262FF999FECF1FBA92BD81BD18
:1012700020BD0FB6F894FA9AF99A0FBE0196089518
:04128000F894FFCF10
:10128400FFFF01030303FEFDFBF7EFDFBF7F010256
:101294000408102040807F04070E1C3870E0FE0410
:1012A400070E1C3870E00100000042312920534928
:1012B4004E474C45504C41594552423229204D55D8
:1012C4004C5449504C415945520053636F72653A2E
:1012D40020202020202020202020503129202020C0
:1012E400202020202050322900202020205031208E
:1012F40057494E5321002020202050322057494E78
:041304005321000071
:00000001FF
