:100000000C9458000C9477000C9477000C947700B3
:100010000C9477000C9477000C9477000C94770084
:100020000C9477000C9477000C9477000C94770074
:100030000C9477000C9417010C9477000C947700C3
:100040000C9477000C9477000C9477000C94770054
:100050000C9477000C9477000C9477000C94770044
:100060000C9477000C9477000C9477000C94770034
:100070000C9477000C9477000C9477000C94770024
:100080000C9477000C9477000C9477008301B001F6
:10009000D001D701FB010D021F0226022D025302DF
:1000A00064026702B2027702800289029502A1020D
:1000B00011241FBECFEFD0E4DEBFCDBF11E0A0E022
:1000C000B1E0ECE7F1E100E00BBF02C007900D9258
:1000D000A438B107D9F711E0A4E8B1E001C01D923E
:1000E000AC3AB107E1F70E948D080C94BC080C945F
:1000F000000040E050E00CC000002F5F3F4F02C006
:1001000020E030E0273063E03607B4F34F5F5F4F05
:1001100048175907ACF308955E9888B95F9A0000B4
:100120005F9882E090E00E947900089581E090E07D
:100130000E948C000895813120F481580E948C0027
:10014000089581550E948C00089584E690E00E94F5
:10015000790088E390E00E948C0086E090E00E94A5
:100160008C008FE090E00E948C0081E090E00E9483
:100170008C008AE090E00E94790008955E9A88B928
:100180005F9A00005F9881E090E00E9479000895F6
:10019000EF92FF920F931F93CF93DF93182FEB01F2
:1001A0000E9496000FC001E0010F812F90E00E9495
:1001B0009B007E018FEFE81AF80A88810E94BE003A
:1001C000102FE70188818111EECFDF91CF911F9130
:1001D0000F91FF90EF9008958BE0809381008DE761
:1001E00090E0909389008093880082E080936F0074
:1001F0001092850010928400809126019091270131
:10020000A0912801B091290180939A0190939B01BC
:10021000A0939C01B0939D018FB780688FBF089514
:1002200010928100089581E080939E0108951F92AD
:100230000F920FB60F9211240BB60F922F933F938C
:100240004F935F936F937F938F939F93AF93BF93DE
:10025000EF93FF9380919A0190919B01A0919C0153
:10026000B0919D010197A109B10980939A019093E2
:100270009B01A0939C01B0939D01892B8A2B8B2B12
:1002800091F40E9413018091260190912701A09181
:100290002801B091290180939A0190939B01A0932A
:1002A0009C01B0939D01FF91EF91BF91AF919F9100
:1002B0008F917F916F915F914F913F912F910F900F
:1002C0000BBE0F900FBE0F901F90189560932601E4
:1002D00070932701809328019093290160939A01DC
:1002E00070939B0180939C0190939D010895E091F0
:1002F000AA01F091AB01E930F10508F0C8C0EA5B52
:10030000FF4F0C94B3088091A3018F7169F4109290
:1003100097011092960110929501109294011092FB
:10032000AB011092AA01B3C0813059F480939701B8
:100330001092960181E090E09093AB018093AA0126
:10034000A6C0823009F0A3C01092970181E080938B
:10035000960181E090E09093AB018093AA0197C051
:100360008091A3018F71A9F0813029F480939701C6
:100370001092960107C0823029F41092970181E013
:100380008093960181E090E09093AB018093AA0165
:100390007EC082E090E09093AB018093AA0177C089
:1003A00083E090E09093AB018093AA0170C08091AC
:1003B000930181110BC090919201911107C083E0CC
:1003C00090E09093AB018093AA0161C0882339F03B
:1003D00084E090E09093AB018093AA0158C0809193
:1003E0009201882309F453C085E090E09093AB011B
:1003F0008093AA014CC080919501853039F486E044
:1004000090E09093AB018093AA0141C083E090E01B
:100410009093AB018093AA013AC0809194018530FA
:1004200039F487E090E09093AB018093AA012FC04C
:1004300083E090E09093AB018093AA0128C088E00C
:1004400090E09093AB018093AA0121C088E090E0F6
:100450009093AB018093AA011AC010929701109259
:10046000960180919001909191018035934C49F4CF
:1004700010929101109290011092AB011092AA017A
:1004800006C088E090E09093AB018093AA01E091D0
:10049000AA01F091AB01E930F10508F063C0E15B1E
:1004A000FF4F0C94B308109299018091980181112B
:1004B00059C00E9496006AE271E081E00E94C80083
:1004C00081E080939801089510929801089581E049
:1004D0008093990180919801811144C06AE471E090
:1004E00081E00E94C80081E080939801089584E132
:1004F0000E949B0080919501805D0E94BE0008953E
:100500008FE10E949B0080919401805D0E94BE005B
:10051000089510929701109296011092990169E640
:1005200071E081E00E94C800089510929701109236
:1005300096011092990166E771E081E00E94C8007F
:10054000089510929701109296011092990180914E
:100550009001909191010196909391018093900167
:100560001092980108958091A4019091A501823084
:100570009105A1F128F4009751F00197D9F063C0DB
:1005800083309105E9F1049709F44CC05CC0809177
:100590009901811105C01092A5011092A40153C0C8
:1005A000882309F450C082E090E09093A5018093E5
:1005B000A40149C080919901811107C081E090E0B8
:1005C0009093A5018093A4013EC08823E1F182E0CD
:1005D00090E09093A5018093A40135C0809199018A
:1005E000811105C01092A5011092A4012CC088238E
:1005F00051F183E090E09093A5018093A40123C082
:1006000080919901811105C01092A5011092A40159
:100610001AC08823C1F084E090E09093A5018093F4
:10062000A40111C080919901811105C01092A5010A
:100630001092A40108C0882331F082E090E09093EA
:10064000A5018093A4018091A4019091A50182301D
:10065000910509F440C028F4009759F0019711F171
:1006600008958330910509F441C0049709F449C005
:10067000089580918E0190918F01019690938F0142
:1006800080938E01E0910301F0E0E05EFE4F8081F7
:1006900085B98EE782B98EEF80931E018FE7809334
:1006A0001601089580918E0190918F01019690938B
:1006B0008F0180938E01E0910301F0E0E05EFE4F38
:1006C000808185B98EE782B98EEF80931E018FE716
:1006D000809316010895E0911F01F0E0E05EFE4F67
:1006E000808185B980911E0182B90895E09117013A
:1006F000F0E0E85EFE4F808185B98091160182B9F5
:100700000895E0910501F0E0E25FFE4F808185B938
:10071000E0910401F0E0EA5FFE4F808182B9089524
:100720008091A8019091A9018230910509F44FC0F0
:1007300028F4009759F00197E1F06BC083309105E0
:1007400009F44CC0049709F450C063C0809199012A
:10075000811105C01092A9011092A8015AC08823E6
:1007600009F457C081E090E09093A9018093A8011B
:1007700050C080919901882329F18091A301982F7D
:10078000917080FD02C081FF04C0992349F081FF70
:1007900007C081E090E09093A9018093A80139C03F
:1007A000992339F082E090E09093A9018093A80109
:1007B00030C081FF2EC083E090E09093A901809328
:1007C000A80127C01092A9011092A80122C084E0BC
:1007D00090E09093A9018093A8011BC084E090E071
:1007E0009093A9018093A80114C080918C019091ED
:1007F0008D01843C994039F481E090E09093A90107
:100800008093A80106C084E090E09093A9018093B2
:10081000A8018091A8019091A90182309105B1F0C1
:1008200028F4009749F0019761F00895833091050D
:10083000A9F00497D9F0089510928D0110928C01BF
:10084000089510928D0110928C01089580911F01DE
:100850008530A8F48F5F80931F01089580911F0158
:10086000882369F0815080931F01089580918C0145
:1008700090918D01019690938D0180938C01089544
:100880008091A1019091A2018230910509F467C085
:1008900028F4009759F0019761F183C083309105E6
:1008A00009F464C0049709F468C07BC08091990181
:1008B000811109C090919601911105C01092A20179
:1008C0001092A1016EC0882379F08091960188234F
:1008D00059F080919701811107C081E090E09093D9
:1008E000A2018093A1015DC01092A2011092A1010A
:1008F00058C080919901811105C01092A2011092F7
:10090000A1014FC0882309F44CC08091960188232F
:1009100009F447C08091A301982F947082FD02C012
:1009200083FF04C0992349F083FF07C081E090E072
:100930009093A2018093A10134C0992339F082E001
:1009400090E09093A2018093A1012BC083FF29C066
:1009500083E090E09093A2018093A10122C084E003
:1009600090E09093A2018093A1011BC084E090E0ED
:100970009093A2018093A10114C080918A0190916B
:100980008B01843C994039F481E090E09093A2017E
:100990008093A10106C084E090E09093A20180932F
:1009A000A1018091A1019091A20182309105B1F045
:1009B00028F4009749F0019761F00895833091057C
:1009C000A9F00497D9F0089510928B0110928A0132
:1009D000089510928B0110928A0108958091170159
:1009E0008530A8F48F5F80931701089580911701D7
:1009F000882369F0815080931701089580918A01BE
:100A000090918B01019690938B0180938A010895B8
:100A100080919F019091A0018230910509F45FC0FF
:100A200028F4009759F0019761F17BC0833091055C
:100A300009F45CC0049709F460C073C08091990107
:100A4000811109C090919701911105C01092A001E8
:100A500010929F0166C0882379F0809197018823C6
:100A600059F080919601811107C081E090E0909348
:100A7000A00180939F0155C01092A00110929F0188
:100A800050C080919901811105C01092A00110926F
:100A90009F0147C0882309F444C0809197018823AF
:100AA00009F43FC09091050180911701981738F41F
:100AB00083E090E09093A00180939F0132C089175A
:100AC00038F482E090E09093A00180939F0129C0C8
:100AD00081E090E09093A00180939F0122C084E088
:100AE00090E09093A00180939F011BC084E090E070
:100AF0009093A00180939F0114C0809188019091F0
:100B00008901883B9B4039F481E090E09093A001FB
:100B100080939F0106C084E090E09093A0018093B1
:100B20009F0180919F019091A00182309105B1F0C9
:100B300028F4009749F0019761F0089583309105FA
:100B4000A9F00497D9F008951092890110928801B4
:100B500008951092890110928801089580911701DB
:100B60008530A8F48F5F8093170108958091170155
:100B7000882369F08150809317010895809188013E
:100B8000909189010196909389018093880108953D
:100B90008091A6019091A7018230910589F128F4F6
:100BA000009759F00197E1F09CC08330910509F45A
:100BB00045C0049709F467C094C0809199018111E0
:100BC00005C01092A7011092A6018BC0882309F4DA
:100BD00088C081E090E09093A7018093A60181C036
:100BE00080919901811105C01092A7011092A60170
:100BF00078C082E090E09093A7018093A60171C035
:100C00008091840190918501803127E2920739F02B
:100C100082E090E09093A7018093A60162C08031AA
:100C2000974209F05EC0109285011092840183E022
:100C300090E09093A7018093A60153C01092850184
:100C4000109284018091040181110AC081E0809397
:100C5000920181E090E09093A7018093A60141C0AA
:100C6000873051F481E08093930181E090E090938C
:100C7000A7018093A60135C084E090E09093A7017E
:100C80008093A6012EC08091860190918701803AC1
:100C90009F4039F084E090E09093A7018093A601F3
:100CA00020C01092870110928601809193018823C1
:100CB00039F081E090E09093A7018093A60111C0E4
:100CC00080919201882339F081E090E09093A70110
:100CD0008093A60106C083E090E09093A7018093E3
:100CE000A6018091A6019091A7018230910509F497
:100CF00062C028F4009759F0019771F0089583308D
:100D0000910509F466C0049709F4FDC10895109295
:100D1000930110929201089580919301811118C05E
:100D200090919201911114C08FEF80930101109264
:100D3000000184E0809305018093040183E08093A7
:100D40001F01809317011092930110929201089550
:100D50008823B1F081E0809301011092000184E0CA
:100D60008093050182E08093040183E080931F015A
:100D700080931701809195018F5F8093950108956D
:100D800080919201882309F4C7C18FEF80930101FC
:100D90001092000184E08093050185E080930401B6
:100DA00083E080931F0180931701809194018F5FEE
:100DB0008093940108951092930110929201809172
:100DC000840190918501019690938501809384011F
:100DD0000895109285011092840120910001809164
:100DE0000501820F8093050130910401909101016A
:100DF000930F909304013FEF380F363018F0219590
:100E000020930001923008F0BFC081110AC0809188
:100E10001F01811181C181E0809301018093000154
:100E20000895813099F480911F01811106C081E0FD
:100E300080930101109200010895813009F06CC186
:100E4000809301018FEF8093000108958230D9F4DF
:100E500080911F01811106C081E080930101809380
:100E600000010895813029F480930101109200015E
:100E70000895823009F050C181E0809301018FEF25
:100E80008093000108958330D9F480911F0181304F
:100E900029F480930101809300010895823031F498
:100EA00081E080930101109200010895833009F0E0
:100EB00033C181E0809301018FEF80930001089599
:100EC0008430E1F480911F01823031F481E080931D
:100ED0000101809300010895833031F481E0809313
:100EE0000101109200010895843009F015C181E0DC
:100EF000809301018FEF8093000108958530E1F424
:100F000080911F01833031F481E08093010180934F
:100F100000010895843031F481E080930101109242
:100F200000010895853009F0F7C081E08093010148
:100F30008FEF8093000108958630A1F480911F0106
:100F4000843031F481E08093010110920001089512
:100F5000853009F0E1C081E0809301018FEF80933B
:100F600000010895873061F480911F01853009F0F8
:100F7000D3C081E0809301018FEF80930001089539
:100F800081E0809392010895963008F4C5C08111E4
:100F90000AC0809117018111BFC08FEF80930101BA
:100FA000809300010895813099F480911701811197
:100FB00006C08FEF809301011092000108958130E7
:100FC00009F0AAC08FEF809301018093000108957A
:100FD0008230E1F480911701811107C08FEF809377
:100FE000010181E0809300010895813031F48FEF99
:100FF00080930101109200010895823009F08CC0A5
:101000008FEF809301018093000108958330E1F414
:1010100080911701813039F48FEF8093010181E0D5
:10102000809300010895823031F48FEF80930101A5
:10103000109200010895833009F06EC08FEF809305
:1010400001018093000108958430E1F4809117013B
:10105000823039F48FEF8093010181E080930001A9
:101060000895833031F48FEF8093010110920001D5
:101070000895843009F050C08FEF80930101809370
:10108000000108958530D9F480911701833039F437
:101090008FEF8093010181E08093000108958430F7
:1010A00031F48FEF80930101109200010895853093
:1010B00099F58FEF809301018093000108958630A8
:1010C00091F480911701843031F48FEF8093010106
:1010D0001092000108958530F9F48FEF809301019B
:1010E000809300010895873051F480911701853075
:1010F00099F48FEF8093010180930001089581E0BE
:1011000080939301089580918601909187010196C3
:10111000909387018093860108958FEF81B912B86B
:1011200084B915B887B918B880EE8AB98FE18BB940
:101130000E94A50061E070E080E090E00E946601FE
:101140000E94EC0089B180958093A3010E947701F1
:101150000E94B3020E9490030E9440040E9408056E
:101160000E94C805EFCFEE0FFF1F0024001C0BBE2E
:0C1170000790F691E02D0994F894FFCF51
:10117C00FFFF01030303FEFDFBF7EFDFBF7F01025F
:10118C000408102040807F04070E1C3870E0FE0419
:10119C00070E1C3870E00100000042312920534931
:1011AC004E474C45504C41594552423229204D55E1
:1011BC004C5449504C415945520053636F72653A37
:1011CC0020202020202020202020503129202020C9
:1011DC002020202020503229002020202050312097
:1011EC0057494E5321002020202050322057494E81
:0411FC00532100007B
:00000001FF
